:100000000C9472000C948F000C948F000C948F0051
:100010000C948F000C948F000C948F000C948F0024
:100020000C948F000C948F000C948F000C948F0014
:100030000C948F000C948F000C948F000C948F0004
:100040000C948F000C948F000C948F000C948F00F4
:100050000C948F000C948F000C948F000C948F00E4
:100060000C948F000C9430030C946D030C948F004F
:100070000C948F000C948F000C948F000C948F00C4
:100080000C94BF030C948F000C948F000C948F0081
:100090000C948F000C948F000C948F000C948F00A4
:1000A0000C948F000C948F000C948F000C948F0094
:1000B0000C948F000C948F000C948F000C948F0084
:1000C0000C948F000C948F000C948F000C948F0074
:1000D0000C948F000C948F000C948F000C948F0064
:1000E0000C948F0011241FBECFEFD1E2DEBFCDBF35
:1000F00012E0A0E0B2E0E8E2FEE002C005900D925E
:10010000A43DB107D9F723E0A4EDB2E001C01D92F0
:10011000AC33B207E1F70E9449020C9412070C9429
:1001200000008F929F92AF92BF92CF92DF92EF9298
:10013000FF924B015C010E94F8036B017C01C80C2B
:10014000D91CEA1CFB1CC814D904EA04FB0438F4CB
:100150000E94F803C616D706E806F906C8F30E94FF
:10016000F8036C157D058E059F05C8F3FF90EF9091
:10017000DF90CF90BF90AF909F908F900895682FA1
:1001800070E0762F6627770F770F072E000C880B0D
:10019000990B0E94910008954F925F926F927F9207
:1001A0008F929F92AF92BF92CF92DF92EF92FF9287
:1001B0000F931F93CF93DF9324E040E060E080E053
:1001C0000E947A0220E040E060E08FE10E947A0223
:1001D00020E640E060E082E10E947A0220E040E018
:1001E00060E081E00E947A0220E040E060E083E08D
:1001F0000E947A0240E050E0BA0181E10E9493023D
:1002000020EA4FE060E085E00E947A0284E194E019
:100210000E94DF026F3F7F4F8F4F910541F448EE00
:1002200053E060E070E080E10E94930209C084E145
:1002300094E00E94DF02AB01BC0180E10E949302C6
:1002400088E194E00E94DF026F3F7F4F8F4F91055E
:1002500041F440E955E56DE370E084E00E949302CB
:1002600009C088E194E00E94DF02AB01BC0184E098
:100270000E9493028CE194E00E94DF026F3F7F4F67
:100280008F4F910541F44CE552E060E070E08EE064
:100290000E94930209C08CE194E00E94DF02AB014E
:1002A000BC018EE00E94930280E294E00E94DF0293
:1002B0006F3F7F4F8F4F910541F440EC50E366E470
:1002C00070E082E00E94930209C080E294E00E9404
:1002D000DF02AB01BC0182E00E9493028DE00E942C
:1002E000B002762E672E582E492E8EE00E94B00264
:1002F000B62EA72E982E892E84E00E94B002F62EEC
:10030000E72ED82EC92E80E10E94B002C62FD72F2B
:10031000182F092F82E00E94B0024F925F926F92D5
:100320007F928F929F92AF92BF92CF92DF92EF9285
:10033000FF920F931F93DF93CF939F938F937F939E
:100340006F938AE292E09F938F930E94040488EE59
:100350000E9475028DB79EB746960FB6F8949EBF61
:100360000FBE8DBFDF91CF911F910F91FF90EF9046
:10037000DF90CF90BF90AF909F908F907F906F90C5
:100380005F904F900895E0ECF0E0908195FFFDCFF5
:100390008093C6000895EF92FF920F931F93CF931F
:1003A000DF938C017B0177235CF0C0E0D0E0F801A3
:1003B00081918F010E94C3012196EC16FD06BCF7C6
:1003C000DF91CF911F910F91FF90EF9008958F9241
:1003D0009F92AF92BF92CF92DF92EF92FF920F93D4
:1003E0001F93CF93DF938BE00E94B002C62FD72FCD
:1003F000182F092F8CE00E94B002B62EA72E982E3F
:10040000892E8AE00E94B0026B017C0184E10E9487
:10041000B002262F372F41E0C416D10440E8E4068D
:10042000F10448F040E050E060E071E04C195D09F3
:100430006E097F0902C0B701A601E6EDF2E0A1E076
:10044000A083A2E0A18382829382A482B5820683E4
:100450001783D087C18772876387548745879687BC
:100460008787308B218B84E0828B85E0838B63E1EF
:1004700070E0CF010E94CB01DF91CF911F910F91CE
:10048000FF90EF90DF90CF90BF90AF909F908F90B4
:10049000089583E881B982B90E94E4030E94190398
:1004A0000E9471020E94B303439A1798789482EADB
:1004B00092E00E941A040E94CC000E94E701809101
:1004C000D4029091D502892B41F08CEC92E00E94ED
:1004D0001A041092D5021092D40281E00E94BF004B
:1004E000ECCF2C9A249A289A089528980E94B90350
:1004F000289A08951F93CF93DF93162FD42FC22FDE
:100500002898880F80640E94B903812F0E94B90344
:100510008D2F0E94B9038C2F0E94B903289ADF9176
:10052000CF911F9108958F929F92AF92BF92CF92D9
:10053000DF92EF92FF92852E962EA72EBB246B01A1
:10054000EE24FF24242F482D6C2D0E947A02FF9068
:10055000EF90DF90CF90BF90AF909F908F900895D5
:10056000CF93DF932898000000000000880F0E94BE
:10057000B9038FEF0E94B903D82F8FEF0E94B90300
:10058000C82F8FEF0E94B903282F00000000000041
:10059000289A8C2F90E0A0E0B0E0BA2FA92F982FD6
:1005A0008827AD2BBC01CD01622BDF91CF9108953F
:1005B000F999FECF92BD81BDF89A80B50895CF928A
:1005C000DF92EF92FF92CF93DF93EC0102960E94AD
:1005D000D802C82ED12CE12CF12CFE2CED2CDC2CD9
:1005E000CC24CE0101960E94D802C80ED11CE11C79
:1005F000F11CFE2CED2CDC2CCC24CE010E94D80268
:10060000A7019601280F311D411D511DCA01B901D5
:10061000DF91CF91FF90EF90DF90CF900895E0ECC5
:10062000F0E0908195FFFDCF8093C60080E090E0E0
:100630000895E1ECF0E0808188698083E2ECF0E0ED
:1006400080818660808388E090E09093C5008093ED
:10065000C40080E092E090933903809338030895BA
:100660001F920F920FB60F9211242F938F939F9387
:10067000EF93FF932091C600809130039091310356
:100680004F97C0F4E0912C03F0912D03809130033B
:1006900090913103E80FF91FEF71FF27E45FFC4FE2
:1006A0002083809130039091310301969093310320
:1006B00080933003179A2B3331F481E090E09093CC
:1006C000D5028093D402FF91EF919F918F912F914A
:1006D0000F900FBE0F901F9018951F920F920FB69C
:1006E0000F9211248F939F93EF93FF938091C000FB
:1006F00085FF30C080912E0390912F03892B29F123
:10070000E091EA02F091EB02E451FD4F8081809389
:10071000C60080912E0390912F03019790932F0391
:1007200080932E038091EA029091EB024F9730F470
:100730008091EA029091EB02019602C080E090E085
:100740009093EB028093EA0205C0E1ECF0E0808137
:100750008F7D8083FF91EF919F918F910F900FBEBE
:100760000F901F90189584B1876084B981E58CBD86
:1007700008958EBD0DB407FEFDCF8EB508951F926E
:100780000F920FB60F9211248F939F93AF93BF9345
:100790008091320390913303A0913403B0913503DB
:1007A0000196A11DB11D8093320390933303A09352
:1007B0003403B0933503BF91AF919F918F910F9008
:1007C0000FBE0F901F9018958FB7F8941092950058
:1007D0001092940099E09093910028E03DE33093CB
:1007E00099002093980092E0909371008FBF089534
:1007F0002FB7F894609132037091330380913403E2
:10080000909135032FBF0895A0E0B0E0EAE0F4E056
:100810000C94EB06AE014B5F5F4FFA016191719151
:10082000AF0180913803909139030E944A04E2E0BD
:100830000C9407070F931F93CF93DF93E091380336
:10084000F0913903238121FF1BC08C01D0E0C0E06F
:10085000F80181918F016091380370913903DB01B8
:100860001896ED91FC911997882331F00995892B01
:1008700079F3DFEFCFEFECCF8AE00995892B19F000
:100880008FEF9FEF02C08D2F9C2FDF91CF911F9193
:100890000F910895ABE0B0E0E0E5F4E00C94DB06E6
:1008A0006C017B018A01FC0117821682838181FF22
:1008B000CCC1CE0101963C01F6019381F70193FD75
:1008C000859193FF81917F01882309F4BAC1853214
:1008D00039F493FD859193FF81917F01853229F44D
:1008E000B60190E00E944106E7CF912C212C312CDB
:1008F000FFE1F315D8F08B3279F038F4803279F0DB
:100900008332A1F4232D20611DC08D3261F080332C
:1009100069F4232D216016C0832D8260382EE32DCB
:10092000E4603E2E2AC0F32DF8601DC037FC2DC0B8
:1009300020ED280F2A3040F08E32B9F436FC81C108
:10094000232D2064322E19C036FE06C08AE0989E00
:10095000200D1124922E11C0EAE02E9E200D1124AC
:10096000222EF32DF0623F2E08C08C3621F4832D09
:100970008068382E02C0883641F4F70193FD8591D6
:1009800093FF81917F018111B3CF982F9F7D955463
:10099000933028F40C5F1F4F9FE399830DC083367B
:1009A00031F0833771F0833509F059C021C0F80167
:1009B000808189830E5F1F4F88248394912C53017B
:1009C00013C02801F2E04F0E511CF801A080B18045
:1009D00036FE03C0692D70E002C06FEF7FEFC501E6
:1009E0000E9436064C018201F32DFF773F2E16C080
:1009F000280122E0420E511CF801A080B18036FE91
:100A000003C0692D70E002C06FEF7FEFC5010E9447
:100A10002B064C01F32DF0683F2E820133FC1BC0E6
:100A2000822D90E088169906B0F4B60180E290E03D
:100A30000E9441062A94F4CFF50137FC859137FED8
:100A400081915F01B60190E00E94410621102A9435
:100A500021E0821A91088114910471F7E8C084366C
:100A600011F0893641F5F80137FE07C060817181C8
:100A7000828193810C5F1F4F08C060817181072EB6
:100A8000000C880B990B0E5F1F4FF32DFF763F2E46
:100A900097FF09C090958095709561957F4F8F4F16
:100AA0009F4FF0683F2E2AE030E0A3010E947D06B0
:100AB000882E861845C0853731F4232D2F7EB22E1F
:100AC0002AE030E025C0932D997FB92E8F36C1F0F2
:100AD00018F4883579F0B5C0803719F0883721F0DF
:100AE000B0C0E92FE061BE2EB4FE0DC0FB2DF46056
:100AF000BF2E09C034FE0AC0292F2660B22E06C0C0
:100B000028E030E005C020E130E002C020E132E022
:100B1000F801B7FE07C060817181828193810C5F0B
:100B20001F4F06C06081718180E090E00E5F1F4F13
:100B3000A3010E947D06882E8618FB2DFF773F2E8D
:100B400036FE0DC0232D2E7FA22E891458F434FEBC
:100B50000BC032FC09C0832D8E7EA82E05C0B82C98
:100B6000A32C03C0B82C01C0B92CA4FE0FC0FE01F9
:100B7000E80DF11D8081803321F49A2D997EA92EF4
:100B800009C0A2FE06C0B394B39404C08A2D86782F
:100B900009F0B394A3FC11C0A0FE06C0B21488F4FF
:100BA000280C922C9B180EC0B21460F4B60180E29F
:100BB00090E00E944106B394F7CFB21418F42B18BA
:100BC00002C0982C212CA4FE10C0B60180E390E056
:100BD0000E944106A2FE17C0A1FC03C088E790E076
:100BE00002C088E590E0B6010CC08A2D867859F0E5
:100BF000A1FE02C08BE201C080E2A7FC8DE2B6013B
:100C000090E00E944106891438F4B60180E390E038
:100C10000E9441069A94F7CF8A94F301E80DF11DE2
:100C20008081B60190E00E9441068110F5CF22201C
:100C300009F442CEB60180E290E00E9441062A9477
:100C4000F6CFF6018681978102C08FEF9FEF2B963A
:100C5000E2E10C94F706FC01059061507040011030
:100C6000D8F7809590958E0F9F1F0895FC016150D5
:100C7000704001900110D8F7809590958E0F9F1FBE
:100C800008950F931F93CF93DF93FB01238121FDE1
:100C900003C08FEF9FEF2CC022FF16C04681578103
:100CA000248135814217530744F4A081B1819D010D
:100CB0002F5F3F4F318320838C93268137812F5FB5
:100CC0003F4F3783268314C08B01EC01FB01008466
:100CD000F185E02D0995892BE1F6D80116968D91C5
:100CE0009C911797019617969C938E931697CE0119
:100CF000DF91CF911F910F910895FA01AA27283013
:100D000051F1203181F1E8946F936E7F6E5F7F4FD8
:100D10008F4F9F4FAF4FB1E03ED0B4E03CD0670F54
:100D2000781F891F9A1FA11D680F791F8A1F911DA7
:100D3000A11D6A0F711D811D911DA11D20D009F4F7
:100D400068943F912AE0269F11243019305D319339
:100D5000DEF6CF010895462F4770405D4193B3E022
:100D60000FD0C9F7F6CF462F4F70405D4A3318F0C9
:100D7000495D31FD4052419302D0A9F7EACFB4E07A
:100D8000A6959795879577956795BA95C9F7009732
:100D90006105710508959B01AC010A2E06945795D3
:100DA000479537952795BA95C9F7620F731F841F2A
:100DB000951FA01D08952F923F924F925F926F92C0
:100DC0007F928F929F92AF92BF92CF92DF92EF92DB
:100DD000FF920F931F93CF93DF93CDB7DEB7CA1B5C
:100DE000DB0B0FB6F894DEBF0FBECDBF09942A8887
:100DF000398848885F846E847D848C849B84AA842F
:100E0000B984C884DF80EE80FD800C811B81AA81BB
:100E1000B981CE0FD11D0FB6F894DEBF0FBECDBF86
:080E2000ED010895F894FFCFE5
:100E280000000003000000000F03000000000D0A8E
:100E380021212120455845435554494F4E205354AC
:100E48004F50504544202121210043532063616CB9
:100E58006962726174696F6E20646174613A2043DB
:100E6800757272656E74204761696E3A20256C64EC
:100E780020202043757272656E74204143206F668E
:100E8800667365743A20256C6420202020566F6CA8
:100E980074616765204761696E3A20256C6420207B
:100EA8002020506F776572206F66667365743A20EC
:100EB800256C6420457073696C6F6E3A256C640DFF
:100EC8000A000D0A0D0A46726D77617265696E69CE
:100ED8007469616C697A696E672076312E302E30BC
:100EE8002E302E342121212121200D0050696E67DA
:040EF800210D0000C8
:00000001FF
